:020000040800F2
:10000000680700200101000811140008E911000828
:10001000ED110008750E0008C71F00080000000061
:10002000000000000000000000000000D1150008E2
:10003000391000080000000099140008BD160008DF
:100040001B0100081B0100081B0100081B01000820
:100050001B0100081B0100081B0100081B01000810
:100060001B0100081B0100081B0100081B01000800
:100070001B0100081B0100081B0100081B010008F0
:100080001B0100081B0100081B0100081B010008E0
:100090001B0100081B0100081B0100081B010008D0
:1000A0001B0100081B0100081B0100081B010008C0
:1000B0001B010008211700081B0100081B01000894
:1000C0001B0100081B0100081B0100081B010008A0
:1000D0001B010008991B00081B0100081B010008F8
:1000E0001B0100081B0100081B010008DFF80CD0F1
:1000F00000F0DEFC00480047F128000868070020F7
:100100000648804706480047FEE7FEE7FEE7FEE7B1
:10011000FEE7FEE7FEE7FEE7FEE7FEE7C1160008A2
:10012000ED000008D2B201E000F8012B491EFBD21D
:1001300070470022F6E710B513460A4604461946F2
:10014000FFF7F0FF204610BD0FB400B58DB010A929
:1001500009900B9000914FF0FF300A9000200C9016
:1001600005480690054807906A4609A80F9900F0CF
:1001700045FA0DB05DF814FB1906000837060008B3
:100180002DE9FF5F1D464FF0FF3BD5E90146914643
:100190005F464FF00008A9697F1C01988847296ACB
:1001A000824688470028F6D1BAF1FF3F0CD024F4EC
:1001B000C064002E19DD600614D5BAF12B0F09D0EA
:1001C000BAF12D0F0ED103E0584604B0BDE8F09F00
:1001D00044F48064A9697F1C01988847761E824692
:1001E000002E02DDBAF1300F03D0B9F1000F26D096
:1001F00032E0A969761E44F400747F1C0198884798
:100200008246002E05DDBAF1780F06D0BAF1580FFC
:1002100003D0B9F1000F10D01EE0B9F1000F02D0E9
:10022000B9F1100F18D1A969761E24F400747F1C4F
:10023000019888478246102002E0082000E00A204A
:10024000814609E008FB0908A969761E44F4007498
:100250007F1C019888478246002E05DD494650469E
:1002600000F0B8F90028EDDAE96901988847A0059F
:1002700002D46FF00100A8E7E00725D1600613D58E
:10028000600502D5C8F1000000E0404629680A1D5B
:100290002A600968220501D5087015E0220701D5FA
:1002A000088011E008600FE02868011D29600068DF
:1002B000210502D580F8008006E0210702D5A0F8CC
:1002C000008001E0C0F8008038467EE780EA010245
:1002D00010B502F00043400022D04A001FD0010EAA
:1002E00001EB1261C0F35600C2F3560240F4000065
:1002F00042F40002A0FB022000047F39140400D065
:10030000401C50EA124001D44000491EC2B20C0603
:1003100004EBD010401C4008802A02D003E00020EB
:1003200010BD20F00100002900DA0020184310BDA4
:1003300030B480EA010202F0004530F0004221F0C2
:10034000004013D090B1C30DD40DC2F31601C0F319
:100350001600E41A41F4000140F400027D34914299
:1003600001D3641C00E04900002C02DA30BC0020FC
:1003700070474FF400000023914201D3891A0343D0
:1003800040084FEA4101F7D151B1914202D14FF0FB
:10039000004105E002D24FF0010101E06FF00101E0
:1003A00003EBC450284430BC00F056B92DE9FE4F91
:1003B00081EA030404F0004421F0004100944FF06E
:1003C000000B23F0004350EA01045ED052EA03041C
:1003D0005BD0C3F30A54C1F30A552C44A4F2F3349E
:1003E0000194A0FB0254C1F3130141F48011C3F343
:1003F000130343F4801301FB024400FB034E840A01
:10040000970A44EA815447EA8357A4FB0768029598
:100410008D0A05FB07854FEA932C04FB0C54270536
:10042000029D4FEA065847EA1637B5EB08056EEB12
:10043000070C870E920E47EA811742EA8312A7FB48
:100440000201B6EB0B0164EB00042B0D43EA0C3305
:100450005E1844EB1C50DA465146E7FB0201C5F337
:1004600013044FEA0B3343EA14534FEA0432019C5E
:1004700043EA0603A4F10C040294009CCDE900B405
:1004800000F030F903B0BDE8F08F00200146F9E735
:1004900096230022114600F0E8B820F00040C10D7C
:1004A000C0F3160040F400007F2901DA00207047F5
:1004B000962903DCC1F19601C840704796398840FF
:1004C000704770B5C1F30A5201F000450024C1F332
:1004D000130140F2FF3341F480119A4201DA002007
:1004E00070BD40F233439A42A2F2334203DC5242DF
:1004F00000F060F800E090402C43F1D0404270BD25
:1005000000F0004230F000400AD0C10D01F56071EA
:10051000C0F3160042EA0151C20840071143704778
:1005200000200146704730B50B46014600202022CE
:10053000012409E021FA02F59D4205D303FA02F5F0
:10054000491B04FA02F52844151EA2F10102F1DC50
:1005500030BD2DE9F05F0546002092469B46884657
:100560000646814640241BE028464146474622462F
:1005700000F020F853465A46C01A914110D3114654
:100580001846224600F0A6FA2D1A67EB01084F46DE
:1005900022460120002100F09DFA17EB00094E4190
:1005A000201EA4F10104DFDC484631462A464346BA
:1005B000BDE8F09F202A04DB203A21FA02F0002156
:1005C000704721FA02F3D040C2F120029140084363
:1005D000194670473A2800D2303820F02002412ACC
:1005E00001D3A2F13700884201D34FF0FF307047AA
:1005F000026811441378016018467047D1600449BD
:1006000051610449116200211161114600F088BA5C
:10061000F1050008170B0008426842B1016811F8A3
:10062000013B23B1521EC0E9001218467047012158
:10063000C160881E704742685AB1C368016843B9F7
:1006400083688B4205D0491E521CC0E9001200206D
:1006500070474FF0FF3070470029A8BF7047401C1B
:10066000490008BF20F00100704710B4B0FA80FCC8
:1006700000FA0CF050EA010404BF10BC704749B105
:10068000CCF1200421FA04F411FA0CF118BF012175
:1006900021430843A3EB0C01CB1D4FEA00614FEA55
:1006A000102042BF002010BC704700EBC350104424
:1006B0000029A4BF10BC7047401C490008BF20F0AF
:1006C000010010BC704710B5141E73F1000408DA65
:1006D000401C41F1000192185B411A4301D120F006
:1006E000010010BD2DE9F04D92469B4611B1B1FAC3
:1006F00081F202E0B0FA80F22032904600F0EAF98E
:1007000004460F4640EA0A0041EA0B0153465A46A6
:10071000084313D0114653EA010019D0C8F1400232
:100720005046FFF747FF05460E465046594642469B
:1007300000F0D0F9084305D0012004E020463946F6
:10074000BDE8F08D0020054346EAE0762C433743B0
:100750000A986305E40AA0EB08000022FD0A44EAB7
:1007600047540A3002D500200146E9E70105101977
:100770006941DDE9084500196941BDE8F04DA2E78E
:100780002DE9FE4F804681EA0300C00F0C46009021
:1007900021F0004123F00045B8EB0200A94105D249
:1007A0004046214690461C460B46024623F0004038
:1007B000104347D0270DC7F30A00C3F30A51029034
:1007C000401A019040286BDAC3F3130040F4801BF9
:1007D0000098924620B10023D2EB030A63EB0B0B87
:1007E00001985946C0F14002504600F073F90646A0
:1007F0000D4650465946019A00F07BF910EB08006F
:100800006141002487EA115284EAE7731A4340D019
:10081000009A62B3019A012A4FEA075215DC001BC5
:1008200061EB02014FF0004202EA0752CDE90042BB
:10083000001C41F5801132462B46FFF753FF03B0F1
:10084000BDE8F08F40462146F9E7001B61EB02014D
:10085000001C41F5801300185B412018A2F5001719
:1008600047EB030140EAD570B6196D4111E06D0800
:100870004FEA360645EAC0754FEA0752001B61EBA6
:100880000201001C41F5801149084FEA30000019AF
:10089000514132462B4603B0BDE8F04FFFF713BF7E
:1008A0000098012240000023D0EB020263EBE073CA
:1008B000009821464FEAE074B8EB000061EB0401B8
:1008C000E9E783F000435BE781F0004158E72DE959
:1008D000F04D81EA030404F0004B21F0004514467A
:1008E0004FF0000A23F0004150EA050220D054EAFC
:1008F00001021DD0C5F30A570246C5F31303C1F325
:100900001300C1F30A5640F4801543F48013A7EB9B
:100910000608101BD64608F2FD3873EB050002D31B
:1009200008F1010801E092185B41B8F1000F03DA09
:1009300000200146BDE8F08D00204FF480110646EE
:1009400084460EE0171B73EB050705D3121B63EB00
:10095000050306434CEA010C49084FEA300092189F
:100960005B4150EA0107EDD152EA030012D082EA5E
:10097000040083EA0501084305D0101BAB4106D2F1
:100980000122002306E000224FF0004302E06FF056
:10099000010253101AEB06004CEB085110EB0A0051
:1009A00041EB0B01BDE8F04DFFF78DBE2DE9F04D99
:1009B00000231A461B1A8A4103DB00200146BDE8CA
:1009C000F08DC1F30A52C1F3130141F480154FF0C9
:1009D000000BD10702D100186D41521E00270446BA
:1009E00040F2FF11384601EB620A3E46804602465D
:1009F00000204FF48011FFF7DDFDC2197141BB18D3
:100A000046EB0100B4EB030C75EB000C04D3E41AC5
:100A100065EB000517460E46241908F101006D41EB
:100A200080463428E3DDF91946EB0600091BA8418E
:100A300003D24FF0FF32134601E0002213461BEBB6
:100A4000070046EB0A51BDE8F04DFFF73CBEC1F38D
:100A50000A52C1F3130140F2FF3341F480119A426C
:100A600002DA00200146704740F233439A42A2F274
:100A7000334202DC5242FFF79DBD00F02BB800006C
:100A800030B5041E71F1000404DB4FF00044404215
:100A900064EB0101141E73F1000405DB1C464FF0EA
:100AA0000043524263EB0403994208BF904230BDB9
:100AB000064C074D06E0E06840F0010394E80700AB
:100AC00098471034AC42F6D3FFF714FBEC2900082A
:100AD0000C2A0008202A04DB203A00FA02F1002048
:100AE00070479140C2F1200320FA03F3194390406C
:100AF0007047202A06DBCB17203A41FA02F043EA7E
:100B0000E07306E041FA02F3D040C2F120029140C6
:100B1000084319467047C0B24FF4F05100F096B93F
:100B20002DE9F34F8BB04FF0000801F10C000C469B
:100B30004FF0010B46460DF1080A01906269012150
:100B400001989047051E2DD0252D2CD0216A88476D
:100B5000C0B16269012101989047216A8847002845
:100B6000F7D1411E62690198904700E0761CA169A7
:100B70000B988847216A88470028F7D1E1690B98CC
:100B80008847DBE7A1690B9888470746A84201D14F
:100B9000761CD3E7E1690B9888477F1C02D1B8F136
:100BA000000F6FD046E1002762693D463946019843
:100BB00090472A2804D162690121019890470125B4
:100BC000DFF884926269012101989047A0F1300119
:100BD0000A290AD24F45E5DC07EB870100EB410704
:100BE000303FDFD445F01005ECE7E90601D46FF0A3
:100BF00000476C280AD04C2814D0682815D06A28E1
:100C00000DD074281CD07A281AD01DE06269012109
:100C1000019890476C2802D045F0040514E045F097
:100C200002050DE045F020050AE062690121019806
:100C30009047682802D045F0080505E045F40065B6
:100C40006269012101989047C4E9015765283DD0A8
:100C500019DC58287AD00CDC452837D004DC25284C
:100C600026D0412831D131E046282FD047282CD139
:100C70002CE05B2877D0612828D063287CD06428BA
:100C800023D15AE0D0E06F2848D008DC66281DD078
:100C900067281BD0692821D06E2816D127E070283C
:100CA00045D0732868D0752847D078280DD14DE0FD
:100CB000A1690B988847054625283FF469AFE1698B
:100CC0000B9888476D1C3FF46AAFB3E023466A4631
:100CD0006FF001000B99AFF300809EE045F04000FB
:100CE0006060A80723464FF0000236D43EE0E807D4
:100CF0007FF447AF2068011D21600068290501D5F8
:100D000006701BE7290701D5068017E7A90703D559
:100D1000F117C0E9006111E706600FE745F04000F8
:100D20006060A80723464FF0080216D41EE040F684
:100D30000E0125EA0100606016E045F040006060A9
:100D4000A80723464FF00A0207D40FE045F0400001
:100D50006060A80708D5234610226FF001000B99A8
:100D6000AFF3008059E007E0234610226FF0010046
:100D70000B99FFF705FA50E04FF000094F464B463C
:100D8000632802D05B2806D040E0E80601D40120A9
:100D9000A06001273AE062690121019890475E282E
:100DA00005D14FF0010962694946019890472169D0
:100DB00039B900210A46534643F82120491C082925
:100DC000FADBB0B3216969B9C11700EBD1625311E5
:100DD0000AEB830122F01F02821A01200B68904067
:100DE00003430B6062690121019890475D28E8D1B7
:100DF000B9F1000F09D00020514651F82020D2430C
:100E000041F82020401C0828F7DB02AB224600975F
:100E10006FF001000B99AFF3008000280CDA401C42
:100E200008D1BBF1000F05D04FF0FF300DB0BDE889
:100E3000F08FFFE74046F9E7E90701D108F1010823
:100E400006444FF0000B79E6CCCCCC0C7F2801D9BE
:100E5000002208E0064A02EB5002C007127800D1D7
:100E6000120902F00F020120904008407047000074
:100E7000AC29000800BFFEE700F0805111B1034922
:100E8000086001E002494860704700000404024025
:100E90000000024021B1026842F00102026004E059
:100EA00002684FF6FE731A400260704701684FF601
:100EB000FE72114001600021016041608160C160EB
:100EC0004B49884208D14A490839496841F00F0125
:100ED000474A083A51608AE045491431884208D1AE
:100EE00043490839496841F0F001414A083A5160E4
:100EF0007DE03F492831884208D13D490839496899
:100F000041F470613A4A083A516070E038493C3126
:100F1000884208D136490839496841F47041344A59
:100F2000083A516063E032495031884208D1304973
:100F30000839496841F470212D4A083A516056E059
:100F40002B496431884208D129490839496841F45C
:100F50007001274A083A516049E0254978318842B2
:100F600008D123490839496841F07061204A083A9C
:100F700051603CE01F49884206D1011F096841F0D9
:100F80000F01021F116032E01A491431884208D162
:100F90001849091F096841F0F001164A121F116033
:100FA00025E014492831884208D11249091F0968EF
:100FB00041F470610F4A121F116018E00D493C3175
:100FC000884208D10B49091F096841F47041094A58
:100FD000121F11600BE007495031884207D10549C3
:100FE000091F096841F47021024A121F11607047FD
:100FF000080002400804024010B50022026847F6CB
:10100000F0739A430C6A8B6823430C6923434C6941
:1010100023438C692343CC6923434C6A23438C6A62
:1010200023431A430260CB6843600B6883604B68BC
:10103000C36010BD4160704770472DE9F041024622
:1010400000250026002000230024002791F803C07B
:101050000CF00F0591F803C00CF0100CBCF1000F60
:1010600003D091F802C04CEA050591F800C0BCF12C
:10107000000F31D0146800202BE04FF0010C0CFA67
:1010800000F3B1F800C00CEA03069E4220D18300B1
:101090004FF00F0C0CFA03F7BC4305FA03FC4CEAC3
:1010A000040491F803C0BCF1280F06D14FF0010CE5
:1010B0000CFA00FCC2F814C00AE091F803C0BCF1BD
:1010C000480F05D14FF0010C0CFA00FCC2F810C01B
:1010D000401C0828D1D31460B1F800C0BCF1FF0F48
:1010E00034DD546800202EE000F1080C4FF00108B8
:1010F00008FA0CF3B1F800C00CEA03069E4221D1B5
:1011000083004FF00F0C0CFA03F7BC4305FA03FC05
:101110004CEA040491F803C0BCF1280F05D100F19A
:10112000080C08FA0CF8C2F8148091F803C0BCF15E
:10113000480F07D100F1080C4FF0010808FA0CF82D
:10114000C2F81080401C0828CED35460BDE8F0815E
:10115000F0B50A46002300240021002500F00046D7
:10116000B6F1004F02D11D4EF16901E01B4E7168CE
:10117000C0F3034583B200F44016B6F5401F08D112
:1011800021F07061154E766826F07066134F7E6010
:1011900012E000F48016B6F5801F06D1032606FA89
:1011A00005F4A14341F0706106E0460D360103FAF3
:1011B00006F6B14341F0706122B1460D360103FAE3
:1011C00006F6314300F00046B6F1004F02D1034E5F
:1011D000F16101E0014E7160F0BD000000000140CE
:1011E000416170470161704700BFFEE700BFFEE745
:1011F00008B50121082000F071F90121202000F03C
:101200006DF90121084600F069F918208DF80300F6
:101210001020ADF8000003208DF802006946134845
:10122000FFF70BFF10208DF803000820ADF8000039
:1012300003208DF8020069460C48FFF7FEFE0821E6
:101240000A48FFF7CDFF10208DF803000420ADF809
:10125000000003208DF8020069460548FFF7EDFE07
:1012600004210348FFF7BCFF08BD0000000C01404B
:101270000014014010B5FFF7BBFF00F04DFC00F07B
:101280000BFC10BD2DE9F04F8BB080460C46154687
:101290001E46DDF850A0B8F1010F07D15448007880
:1012A00020F0080008305249087008E0B8F1020F39
:1012B00005D14F48007820F008004D4908704C488F
:1012C0000078C0F3C00020B908214A48FFF788FF22
:1012D00003E008214748FFF785FF002C7ED04648F1
:1012E000B0FBFAF0424908612846FFF7D1F8014601
:1012F00000904248FFF71CF80190FFF701F9CDE993
:10130000020101F02DFB00223D4BCDE90401FFF766
:101310004DF800223B4BCDE90601FFF747F8CDE938
:101320000801FFF7CEF8324948602846FFF7B0F8C9
:1013300035490690FEF7CAFF08900AFB0AF0FFF74E
:10134000A7F807900899FEF7F3FF0990FFF7A5F8B3
:10135000074606FB04F0A919B0FBF1F9B94504D81A
:10136000A9EB04002249C86006E007FB05F0B0FBCA
:10137000F6F040421E49C8601D48C06820441C4920
:10138000886008464068096988420AD81848006998
:10139000174948600846007820F00700C01C087014
:1013A00006E01348007820F00700401C1049087040
:1013B00000200F4948611548B0F800B00846808801
:1013C000584481B21148243800F012FB0122022156
:1013D0000E48243800F0B6FA012100E004E00B4882
:1013E000243800F092FA00BF0BB0BDE8F08F000087
:1013F00050030020000C0140FDFE0200F5AD803BD3
:1014000000E1194100002440CF0FC93E24040040F0
:101410007047000070B5002100230F22C47804B388
:10142000154C246804F4E064C4F5E064210AC1F1B9
:101430000403CA40447804FA03F184781440214339
:1014400009010E4C0678A155047804F01F0501240B
:10145000AC4005786D11AD0005F1E025C5F80041FF
:1014600009E0047804F01F050124AC40044D06781F
:10147000761145F8264070BD0CED00E000E400E078
:1014800080E100E002490143024A11607047000018
:101490000000FA050CED00E07047000029B1064A93
:1014A00052690243044B5A6104E0034A5269824381
:1014B000014B5A61704700000010024029B1064AF2
:1014C000D2690243044BDA6104E0034AD2698243E1
:1014D000014BDA61704700000010024029B1064A52
:1014E00092690243044B9A6104E0034A9269824381
:1014F000014B9A61704700000010024030B5002196
:101500000022002400232D4D6D6805F00C0121B14F
:10151000042905D0082923D105E0294D056022E0E2
:10152000274D05601FE0254D6D6805F47012234DB1
:101530006D6805F48034022505EB92421CB9214DFB
:10154000554305600BE01D4D6D6805F400351DB178
:101550001C4D5543056002E0194D5543056002E0FE
:10156000174D056000BF00BF144D6D6805F0F00118
:101570000909154D6B5C0568DD4045600F4D6D68D0
:1015800005F4E061090A104D6B5C4568DD4085603B
:101590000A4D6D6805F46051C90A0B4D6B5C4568D6
:1015A000DD40C560054D6D6805F44041890B074D70
:1015B0006B5CC568B5FBF3F5056130BD00100240FA
:1015C00000127A0000093D000000002010000020F9
:1015D000704710B500F002F810BD00000CB50020F7
:1015E000019000903348006840F480303149086031
:1015F00000BF3048006800F4003000900198401CA3
:101600000190009818B90198B0F5A06FF1D1294860
:10161000006800F4003010B10120009001E00020CB
:1016200000900098012843D12348006840F0100042
:10163000214908600846006820F003000860084659
:10164000006840F0020008601A4840681949486084
:101650000846406848600846406840F4806048603A
:101660000846406820F47C1048600846406840F412
:10167000E81048600846006840F08070086000BFCD
:101680000C48006800F000700028F9D00948406854
:1016900020F00300074948600846406840F0020017
:1016A000486000BF0348406800F00C000828F9D1EA
:1016B0000CBD0000001002400020024070470000F6
:1016C00010B51348006840F0010011490860084651
:1016D0004068104908400E494860084600680E49B5
:1016E00008400B4908600846006820F48020086024
:1016F0000846406820F4FE0048604FF41F008860F0
:10170000FFF767FF4FF000600449086010BD00005C
:10171000001002400000FFF8FFFFF6FE08ED00E0B9
:1017200070B50025002602216F4800F0FAF8002865
:101730007ED002216C4800F0E5F86B482430058823
:101740006A4840684619B1B2674800F051F96848E4
:101750000078401C6649087008460078022867D166
:10176000002008706148007800F0070030B10128BF
:1017700012D002287FD003280DD15DE000205D4902
:1017800008605D49086004215C48FFF729FD0021DD
:10179000554800F0BAF8A3E056480068401C554987
:1017A000086052484069401C5049486108464068FA
:1017B00051490968022202FB00114C48406980002F
:1017C000401C91FBF0F0494949680C1A47484068B1
:1017D0004949096802FB0011444840698000401CE7
:1017E00091FBF0F200FB1210434908603F4880680B
:1017F0004049096888420AD83C48C0683B4948616A
:101800000846007820F00700801C087013E0374875
:101810000069A0420FD33A480460344804690020AC
:10182000354908603148007820F00700C01C00E00E
:1018300059E02E49087053E02E480068401C2D499D
:1018400008602A484069401C2849486108460469E4
:1018500080682849096888420BD82448C068234911
:101860004861274804680846007820F00700801C7B
:10187000087035E0FFE71F480068401C1D490860FC
:101880001A484069401C19494861084640681A498D
:101890000968022202FB0011144840698000401CC4
:1018A00091FBF0F0114949680C1A10484068124940
:1018B000096802FB00110D4840698000401C91FB43
:1018C000F0F200FB12100C4908600848406900283B
:1018D00005DB0648007820F007000449087000BFC7
:1018E00000BF0248446070BD000400405003002067
:1018F00030000020280000202C00002000140140AF
:1019000024000020CA430282704721B1028842F0BD
:101910000102028004E002884FF6FE731A40028042
:10192000704730B50246002000230024158A05EADE
:101930000103958905EA010413B10CB1012000E00F
:10194000002030BD1AB183890B43838102E0838973
:101950008B4383817047000070B500240022002370
:10196000058C4FF6FE7635400584028C8388048B07
:101970004FF68F752C40B51E2C400D882C43751EDC
:101980002A400D892A434D882A43144DA8420BD082
:10199000134DA84208D0134DA84205D0124DA842BD
:1019A00002D0124DA84213D14FF6F7752A404D8947
:1019B0002A434FF6FB752A408D882A434FF6FF6570
:1019C0002B404FF6FF552B408D892B43CD892B4360
:1019D00083800483CD888586028470BD002C0140FD
:1019E00000340140004001400044014000480140F3
:1019F00081867047002202881D4B98420ED01D4BF5
:101A000098420BD0B0F1804F08D01B4B984205D0C4
:101A10001A4B984202D01A4B984204D14FF68F735A
:101A20001A404B881A43174B984207D0164B9842DE
:101A300004D04FF6FF431A40CB881A4302808B88AC
:101A400083850B8803850A4B98420BD0094B98423B
:101A500008D00E4B984205D00D4B984202D00D4B4A
:101A6000984201D10B7A03860123838270470000DC
:101A7000002C0140003401400004004000080040F8
:101A8000000C0040001000400014004000400140E5
:101A9000004401400048014000B587B00121022008
:101AA000FFF70CFD01211948FFF752FB01211848EF
:101AB000FFF74EFB0020ADF81600ADF812004FF610
:101AC000FF70ADF814004720ADF8100004A91148CC
:101AD000FFF790FF3020ADF800000020ADF80800BF
:101AE0000120ADF802000020ADF806006946094863
:101AF000FFF732FF012202210648FFF723FF0121F1
:101B00000448FFF702FF07B000BD000000081A00FC
:101B1000000430000004004008B54FF4E060FFF717
:101B2000B1FC1D208DF8000000208DF8010001207F
:101B30008DF802008DF803006846FFF76BFC08BDC6
:101B400000B58BB001210846FFF7A8FC0F480090B4
:101B50000F480190002002904FF480700390002005
:101B600004908020059000200690079008904FF484
:101B70000050099000200A9069460648FFF73CFA99
:101B80004FF40030FFF778F90BB000BD0438014086
:101B90003C0000205800024010B540F224413E486D
:101BA00000F04CF9002876D000213C48FFF772F98C
:101BB0003B4A3CA13C48FEF7C7FA3948006820B1CF
:101BC0003A480068401C39490860384800680628CF
:101BD0003FD2DFE800F03E03101A242E00203449E3
:101BE00008602F480068334908600846016832A041
:101BF00000F0ECF92EE02A4800682E4948600846BB
:101C0000416831A000F0E2F924E025480068294944
:101C10008860084681682FA000F0D8F91AE02048B3
:101C200000682449C8600846C1682DA000F0CEF9BC
:101C300010E01B4800681F490861084601692BA095
:101C400000F0C4F92CA000F0C1F901201849086087
:101C500000E000BF00BF4FF480711348FEF769FA3F
:101C60004FF480710D48FFF7E5F90C48FFF71EF9B6
:101C7000FFF766FF01224021074800F0C9F8012163
:101C80000648FFF707F9044800F094F940F22441B0
:101C9000014800F0A2F810BD003801405800024091
:101CA0001C000020256400003C00002014000020DF
:101CB000180000203C0300200D0A64697274656DF1
:101CC000703A2564000000000D0A737465703A25AF
:101CD000640000000D0A616363656C3A25640000CE
:101CE0000D0A646563656C3A256400000D0A737023
:101CF0006565643A256400000D0A4D6F746F7220AB
:101D000052756E6E696E672E2E2E000010B586B06D
:101D10000446012144F20400FFF7E0FB4FF4007099
:101D2000ADF8140003208DF8160018208DF8170068
:101D300005A92348FFF781F94FF48060ADF814003E
:101D400004208DF8170005A91D48FFF776F90194C6
:101D50000020ADF80800ADF80A00ADF80C00ADF8B1
:101D600010000C20ADF80E0001A9164800F0B6F8DE
:101D70004FF4E060FFF786FB25208DF8000001207E
:101D80008DF801008DF802008DF803006846FFF71A
:101D900041FB30210B4800F017F8012240F2255199
:101DA000084800F075F8012240F22441054800F08F
:101DB0006FF80121034800F01FF806B010BD0000C5
:101DC000000801400038014001F40072B2F5007FC4
:101DD00000D100BFCA430280704710B50022002323
:101DE00040F66A14A14200D100BF0A1201249440B7
:101DF000A3B2DC43048010BD21B1828942F40052B9
:101E0000828104E082894DF6FF731A408281704717
:101E10001AB1838A0B43838202E0838A8B438382D5
:101E2000704702460020B1F5007F00D100BF138843
:101E30000B400BB1012000E00020704770B5024656
:101E4000002400230025002040F66A16B14200D18C
:101E500000BFC1F3421501F01F03012606FA03F388
:101E6000012D02D19689334006E0022D02D1168A57
:101E7000334001E0968A33400C12012606FA04F43E
:101E80001688344013B10CB1012000E0002070BD71
:101E9000F0B50346002400260025002040F66A170E
:101EA000B94200D100BF1846C1F3421401F01F0629
:101EB000012707FA06F5012C01D10C3004E0022CB1
:101EC00001D1103000E014301AB107682F430760C9
:101ED00002E00768AF430760F0BD00002DE9F0475E
:101EE00086B005460E460024A24600BFA146002744
:101EF000B08900B100BF2F462C8A4CF6FF70044019
:101F0000F08804432C82AC894EF6F3100440B0886C
:101F100031890843718908430443AC81AC8A4FF688
:101F2000FF400440B0890443AC8201A8FFF7E6FA01
:101F30001F48874202D1DDF810A001E0DDF80CA0B7
:101F4000A88900F4004040B10AEBCA0000EB0A1077
:101F500031684900B0FBF1F807E00AEBCA0000EB7A
:101F60000A1031688900B0FBF1F86420B8FBF0F08A
:101F700004012009642101FB1089A88900F40040B4
:101F800040B1322000EBC900B0FBF1F000F00700D7
:101F9000044308E0322000EB09106421B0FBF1F0AB
:101FA00000F00F0004432C8106B0BDE8F08700006C
:101FB0000038014001468888C0F308007047C1F32B
:101FC00008028280704700BFFEE700000FB4054B97
:101FD00010B503A9044A029800F0E0F810BC5DF8BF
:101FE00014FB0000CD2800083400002002E008C8DF
:101FF000121F08C1002AFAD170477047002001E083
:1020000001C1121F002AFBD170470000014908607E
:1020100070470000380000202DE9FF5F82B00021EA
:10202000DDE90430020DDDF840B0034318D044F67A
:102030001050A2F2FF3242431514119801281FD00C
:10204000A5EB0B00401C5FEA000A4FF000064E4F64
:10205000DFF83891B046504615D5CAF1000413E0B8
:10206000119801244AA3012801D16FEA0B010298BB
:10207000119AC0E90031C0E9024206B0BDE8F09F04
:10208000CBF10000DFE704460021404A491842EB4B
:102090000450CDE9001012E0E00707D032463B467D
:1020A00040464946FEF782F98046894632463B461D
:1020B00010461946FEF77AF906460F466410002CC2
:1020C000EAD1DDE90401DDE90023BAF1000F06DA07
:1020D000FEF76CF942464B46FEF768F905E0FEF75D
:1020E000F6FB42464B46FEF7F2FB04460E46002244
:1020F000284BFEF7C5FC03D84FF0FF30014607E040
:102100000022254B20463146FEF73AFBFEF79FFCA6
:10211000102409E0002C0ADB0A220023FEF719FA3A
:10212000039B30321A55641E50EA0102F2D1641C3E
:10213000039AC4F111031444119A012A03D0012215
:1021400008430DD10AE0084304D000204FF0110BE2
:10215000119072E7A3EB0B056D1E0DE05B4504DDEE
:102160004FF0000205F1010504E003DA4FF0000230
:10217000A5F10105002AECD002981199C0E90231BD
:10218000C0E9004579E70000000014400000F03F7E
:10219000300000000000F0430000E03F2DE9FF4F59
:1021A00095B09B468946064600250FE2252877D143
:1021B00000242746F84A0121059400E0044316F85C
:1021C000013F203B01FA03F01042F7D130782A2872
:1021D00011D06FF02F033078A0F13002092A16D801
:1021E000059A44F0020402EB820203EB420210441F
:1021F000761C0590EFE759F8042B0592002A03DAC4
:10220000504244F40054059044F00204761C3078A7
:102210002E2816D116F8010F44F004042A280DD0F8
:102220006FF02F023078A0F13003092B09D807EBAB
:10223000870302EB4303C718761CF3E759F8047BC6
:10224000761C30786C280FD006DC4C2817D0682814
:102250000DD06A2814D104E0742810D07A280FD148
:102260000DE044F400140AE044F4801401E044F466
:1022700040147278824202D104F58014761C761CD8
:10228000307866280BD013DC582877D009DC00287A
:1022900075D04528F6D04628F4D047281AD19DE1BC
:1022A00018E0632835D0642879D0652812D195E1EB
:1022B000702873D008DC6728F1D069286FD06E28A9
:1022C0000DD06F2806D1B5E073282CD0752875D0B5
:1022D000782874D05A46179990476D1C75E1C4F35D
:1022E0000250022809D003280DD0D9F80010042884
:1022F0000DD00D6009F1040967E1D9F80010EA1763
:10230000C1E90052F6E7D9F800100D80F2E70D7030
:10231000F0E719F8041B8DF8001000208DF801007B
:10232000EA46012003E059F804AB4FF0FF306107A3
:102330004FF0000102D40DE008F101018846B942D6
:102340000FDA8045F8DB1AF808100029F4D108E00C
:1023500008F1010188468142FADB1AF808100029C9
:10236000F6D105985B46A0EB080721463846179A38
:1023700000F094FA284400EB080507E04DE029E15D
:102380000DE01AF8010B5A4617999047B8F1010869
:10239000F7D25B4621463846179A13E142E00A22FB
:1023A0000092C4F302524FF0000A022A08D059F8F2
:1023B00004CB032A4FEAEC710AD00DE029E02AE0B1
:1023C00009F1070121F00702F2E802C1914609E094
:1023D0000FFA8CFC4FEAEC71042A03D14FFA8CFC03
:1023E0004FEAEC71002907DA0A460021DCF1000C03
:1023F00061EB02012D2202E0220504D52B228DF88B
:102400000420012203E0E20701D02022F7E79046F2
:1024100059E00A2102E010220DE010214FF0000ADD
:1024200000910BE010224FF0000A44F0040408274A
:10243000009203E008224FF0000A0092C4F3025217
:10244000022A05D059F804CB0021032A08D009E05C
:1024500009F1070121F00702F2E802C1914605E007
:102460001FFA8CFC042A01D10CF0FF0C4FF000087D
:10247000220728D5702806D0009B83F0100353EA6A
:102480000A0305D00EE040228DF80420012208E066
:102490005CEA010206D030228DF804208DF8050098
:1024A00002229046009B83F0080353EA0A030AD1F4
:1024B0005CEA010201D1620705D530228DF80420C3
:1024C0004FF001087F1E582804D034A003900EA8B6
:1024D00002900DE036A0F9E753466046009AFEF7F9
:1024E00038F884460398825C0298401E029002707D
:1024F0005CEA0100F0D1029806A9081A00F1200A4E
:10250000600702D524F4803400E00127574502DD3E
:10251000A7EB0A0000E0002000EB0A0100900598FC
:102520004144401A0590E00306D45B462146179AC1
:10253000059800F0B3F90544002706E001A85A46C3
:10254000C05D179990476D1C7F1C4745F6DBE00383
:102550000CD55B462146179A059800F09FF9054473
:1025600004E030205A46179990476D1C0099481E88
:1025700000900029F5DC08E0029802995A4600789C
:10258000491C0291179990476D1CBAF10001AAF1FC
:10259000010AF1DC65E10000092801003031323325
:1025A000343536373839616263646566000000008F
:1025B0003031323334353637383941424344454679
:1025C0000000000000F058F90544761C307800281F
:1025D0007FF4ECAD19B02846BDE8F08F620700D457
:1025E000062709F1070222F0070CFCE80223E14666
:1025F00003F000485FEA080C02D00FF2702C0DE0E7
:102600005FEA045C02D50FF2682C07E05FEAC47C45
:1026100002D00FF2602C01E0AFF2700C4FF0FF38E7
:1026200023F00043CDF850C065280CD006DC4528C7
:1026300009D046281DD047283DD13DE0662818D056
:1026400067287ED138E00021112F01DB112000E046
:10265000781CCDE9000106A90EA8FFF7DDFCDDE935
:102660000F010E9A03910021009207F1010A0491D3
:102670004DE04FF000400097CDE9011006A90EA8EB
:10268000FFF7CAFCDDE90F0203920E9B11990022AD
:10269000DDF80CA00093049211B9791C00EB010A3B
:1026A000B7EB0A0004D4C0F1FF3007F1010A04902F
:1026B000AAEB0700019044E0012F00DA0127002176
:1026C000112F01DD112000E03846CDE9000106A9F7
:1026D0000EA8FFF7A1FCDDE90F010E9A039100217E
:1026E00004910092BA4621070CD40399514500DAAF
:1026F0008A46BAF1010F05DD009AAAF10101515C89
:10270000302908D0B84202DA10F1040F06DA0121AC
:10271000CDE9011015E0AAF10101E9E7002805DC87
:10272000049901440491AAEB000102E0411C5145C7
:1027300000DD8A460499401A401C01904FF0004089
:102740000290200704D40198504501DBCDF80480A5
:1027500000208DF84F0002980DF14F07B0F1004FA7
:1027600025D02B200E9002984FF0020800280CDA9A
:10277000404202902D200E9007E00A210298FDF7BA
:10278000D2FE3031029007F8011DB8F10001A8F126
:102790000108F2DC02980028EFD1791E0E9808702B
:1027A000307800F0200040F0450007F8020D12A834
:1027B000C01B00F107081498007800B1012000EB5D
:1027C0000A01019801EBE07105984144401A401E4E
:1027D0000590E00306D45B462146179A059800F061
:1027E0005DF805441498007818B15A461799904737
:1027F0006D1CE00324D55B462146179A059800F02E
:102800004DF805441CE00498002807DBDDE90301CE
:10281000884203DD0098405C179901E01799302049
:102820005A469047049805F10105401C0490019810
:10283000401E019004D12E205A46179990476D1CD6
:10284000BAF10001AAF1010ADDDC05E017F8010B7D
:102850005A46179990476D1CB8F10001A8F101087C
:10286000F4DC5B462146179A0598ABE62D00000084
:102870002B000000200000002DE9F0410446002557
:102880001E461746880404D405E039462020B04788
:102890006D1C641EF9D52846BDE8F0812DE9F04194
:1028A000044600251E469046C80301D5302700E0A7
:1028B0002027880404D505E041463846B0476D1C02
:1028C000641EF9D52846BDE8F081000070B50446C5
:1028D0000D46E1B20548FFF772FB00BF80210348B7
:1028E000FFF79FFA0028F9D0204670BD003801405C
:1028F00008B5FEF7BFFC4FF4E130FFF707FAFFF72A
:102900001FF9012240211048FFF782FA01210F48E8
:10291000FEF7C0FA17E00E480068012813D1002026
:102920000C49086004210C48FEF75CFC0B48006968
:102930000A4C0090E368A26861682068FEF7A2FC78
:10294000002003490860E6E70038014058000240D3
:102950001800002014000020001401403C03002057
:102960002DE9F04106460F46FEF720F8041E0D46FD
:1029700018BF0120284320F00040C0F17F6000F123
:10298000E040C00F0ED0301C18BF0120384320F0AB
:102990000040C0F17F6000F1E040C00F04BF0120A3
:1029A000FFF734FB20462946BDE8F081DDDDDDDDA3
:1029B000DCBBBBDDDDDDDDDDDDDDDDDD98888888D0
:1029C0008888888877777777778888888555555677
:1029D00066666666666666666668888883333332CE
:1029E00022222222222222222228888D0C2A00083A
:1029F000000000203C000000EC1F0008482A0008EE
:102A00003C0000202C070000FC1F00080000000014
:102A10000102030401020304060708090204060870
:102A2000000000000000000000000000480000005E
:102A30000000000000000000000000000000000096
:082A400000000000000000008E
:04000005080000ED02
:00000001FF
